:0400000085EF00F098
:100008006275627562756275627562756275627530
:100018006275627562756275627562756275627520
:100028006275627562756275627562756275627510
:100038006275627562756275627562756275627500
:1000480062756275627562756275627562756275F0
:1000580062756275627562756275627562756275E0
:1000680062756275627562756275627562756275D0
:100078006275627562756275420062756275627555
:1000880062756275627562756275627562756275B0
:100098002374627562756275420062756275627575
:1000A8006275627562756275627562756275627590
:1000B8006275627562756275627562756275627580
:1000C8006275627562756275627562756275627570
:1000D8006275627562756275627562756275627560
:1000E80042006275627562756275627562756275E5
:1000F8006275627562756275627562756275627540
:06010800FF00C5EFE2F06C
:10F73000001F001C001F001E001F001E001F001FD6
:10F74000001E001F001E001F00819FE0FC407E8005
:10F75000FC00000A0D53656C65637428756E696D55
:10F760006F6E36386B203D20312C206261736963E7
:10F7700036386B203D20322C2043502F4D2D36380B
:10F780004B203D203329203A20005344204361720E
:10F79000643A20726561643531323A204352432025
:10F7A0006572726F7220282530347820213D202523
:10F7B0003034782C2072657472793D2564290A0DE5
:10F7C00000496D6167652066696C652025732F446B
:10F7D0005249564525632E44534B2069732061736B
:10F7E0007369676E656420746F2064726976652042
:10F7F00025630A0D006469736B5F696F63746C3A0B
:10F8000020706472763D25642C20636D643D256410
:10F810002C20627566663D3078256C783A207265DA
:10F82000733D25640A0D00534420436172643A20FD
:10F8300020726561643531323A20616464723D251D
:10F84000386C642C206F6666733D25642C20636FD2
:10F85000756E743D25640A0D005344204361726443
:10F860003A2077726974653531323A206164647286
:10F870003D25386C642C206F6666733D25642C2012
:10F88000636F756E743D25640A0D00534420436117
:10F8900072643A2077726974653531323A20666154
:10F8A000696C656420746F2067657420746F6B6584
:10F8B0006E2C2074696D656F75740A0D00534420B9
:10F8C000436172643A2077726974653531323A2047
:10F8D00074696D656F75742C20726573706F6E73CB
:10F8E0006520697320253032780A0D005344204387
:10F8F0006172643A20434D4435382C2052333D2503
:10F90000303278202530327820253032782025306A
:10F91000327820253032780A0D0025733A2045527E
:10F92000524F523A20636C6F636B2073706565644D
:10F93000202564206973206E6F7420737570706F5A
:10F94000727465640A0D00534420436172643A2066
:10F95000434D44382C2052373D2530327820253015
:10F960003278202530327820253032782025303208
:10F97000780A0D006469736B5F696F63746C3A2079
:10F98000706472763D25642C20636D643D25643A75
:10F99000204E6F742068616E646C65642E0A0D00E1
:10F9A0006469736B5F726561643A2020706472767B
:10F9B0003D25642C20736563746F723D256C642C47
:10F9C00020636F756E743D25640A0D006469736B66
:10F9D0005F77726974653A20706472763D25642C95
:10F9E00020736563746F723D256C642C20636F75A2
:10F9F0006E743D25640A0D00534420436172643ADD
:10FA00002043435320284361726420436170616343
:10FA10006974792053746174757329206973203077
:10FA20000A0D00534420436172643A20777269746E
:10FA3000653531323A20435243206572726F72202D
:10FA40002872657472793D2564290A0D005344209B
:10FA5000436172643A204361726420706F7765720B
:10FA600020757020737461747573206269732069E6
:10FA70007320300A0D0072656164204D425220707F
:10FA80006172746974696F6E207461626C65206163
:10FA90007420736563746F7220300A0D004D455AEF
:10FAA00036384B385F52414D204669726D7761722E
:10FAB0006520526576312E33206F6E20454D555AA4
:10FAC000383000534420436172643A205344484321
:10FAD000206F722053445843206361726420646530
:10FAE0007465637465640A0D0025733A20455252AB
:10FAF0004F523A206D6F6465202564206973206E33
:10FB00006F7420737570706F727465640A0D004CA9
:10FB10006F6164202573203A20416472203D2025C6
:10FB200030366C782C2053697A65203D202530349E
:10FB3000780D0A00534420436172643A20696E696B
:10FB40007469616C697A65202E2E2E20737563634B
:10FB500065656465640A0D00534420436172643A2C
:10FB600020756E6578706563746564207265737066
:10FB70006F6E736520253032780A0D0053442043A0
:10FB80006172643A2041434D443431207265737090
:10FB90006F6E736520697320253032780A0D00532B
:10FBA0004420436172643A2077726974653531325A
:10FBB0003A20746F6B656E20697320253032780AA5
:10FBC0000D004D656D6F727920303030303030204F
:10FBD0002D202530366C5848202564204B42204F7C
:10FBE0004B0D0A00534420436172643A20434D4454
:10FBF000353920726573706F6E73652069732025C7
:10FC00003032780A0D00706172746974696F6E2009
:10FC100073746172747320617420736563746F729E
:10FC200020256C640A0D00665F7772697465282967
:10FC30003A204552524F52207265733D25642C2064
:10FC40006E3D25640A0D004E6F2043504D444953CC
:10FC50004B53206469726563746F727920666F75A7
:10FC60006E642E0D0A00665F7265616428293A2071
:10FC70004552524F52207265733D25642C206E3DD3
:10FC800025640A0D006661696C656420746F2077D5
:10FC90007269746520736563746F7220256C640AE1
:10FCA0000D006661696C656420746F207265616423
:10FCB00020736563746F7220256C640A0D000A0D51
:10FCC000534420436172643A20696E697469616CBF
:10FCD000697A65202E2E2E0A0D0050726F677261B0
:10FCE0006D2046696C65204C6F6164204572726FAF
:10FCF000722E0D0A004661696C656420746F206D78
:10FD00006F756E7420534420436172642E0A0D0097
:10FD1000554E4B4E4F574E20756E696D6F6E20439A
:10FD20004D442825303278290D0A00534420436180
:10FD300072643A2041434D4434312C2052313D25E8
:10FD40003032780A0D006661696C656420746F203A
:10FD50007265616420736563746F7220300A0D00F0
:10FD60004661696C656420746F206F70656E205306
:10FD70004420436172642E0A0D000A4D656D6F7256
:10FD800079206572726F72206174202530366C584C
:10FD9000480A0D006469736B5F696E697469616C10
:10FDA000697A65282564292E2E2E0A0D00534420D9
:10FDB000436172643A206E6F74207375706F707255
:10FDC0007465640A0D00534420436172643A204311
:10FDD0004D44302C2052313D253032780A0D002020
:10FDE0002020202020202020202020202020202013
:10FDF0002020202020200D007761697420666F721A
:10FE00002070726F6772616D6D6572202E2E2E0DDF
:10FE10000025732535337320434845434B53554DD7
:10FE20003A20253032780A0D004D656D6F727920C9
:10FE3000303030303030202D202530366C58480D91
:10FE400000706879736963616C20647269766572A9
:10FE500020213D20300A0D000A4D656D6F7279201A
:10FE6000777261702061726F756E642E0A0D006684
:10FE70005F6C7365656B28293A204552524F5220BA
:10FE800025640A0D006E6F204641543332207061A4
:10FE900072746974696F6E0A0D00665F73796E63C0
:10FEA00028293A204552524F522025640A0D005508
:10FEB0007365204E434F312025322E33664D487AEC
:10FEC0000D0A006E6F204D4252207369676E617497
:10FED0007572650A0D00534420436172643A2074C0
:10FEE000696D656F75740A0D006E6F2076616C69BF
:10FEF0006420766F6C756D650A0D00534420436174
:10FF000072643A2072656164792E0A0D005350497B
:10FF10005F53445F636F6E666967757265004E6F0D
:10FF200020626F6F74206469736B2E0A0D002A2B98
:10FF30002C3A3B3C3D3E5B5D7C223F7F0025732F8E
:10FF4000445249564525632E44534B004E6F20536F
:10FF50004420436172643F0A0D00424153494336D5
:10FF6000384B2E42494E00554D4F4E5F36384B2E82
:10FF700042494E00426F6172643A2025730A0D00B7
:10FF80004465746563742025730A0D0043504D3633
:10FF9000384B2E42494E004342494F532E42494E60
:10FFA0000046415433322020200025732530366C22
:10FFB000783A0043504D4449534B53002573253044
:10FFC00034783A00286E756C6C2900202530327820
:10FFD000006661743A200025732F257300627566F0
:10FFE0003A2000303A2F2F0052443A200057523A1C
:10FFF000200053443A2000696E66006E616E000076
:020000040001F9
:1000000083C6D9F484C6DAF4DE6ADD6A81C604F5F3
:1000100082C605F5BCECCAF004C592F605C593F698
:10002000060193BF18EF80F016EF80F01BEF80F011
:100030000B0E61EF85F0D8909235D96E9335DA6E5C
:10004000230ED926070EDA22DEC4ADF6DDC4AEF6E5
:10005000AD51AE11D8A42FEF80F031EF80F034EF26
:1000600080F00C0E61EF85F083C6D9F484C6DAF413
:10007000ADC6DEF4AEC6DDF48591ADC6D9F4AEC62C
:10008000DAF4DF50D8B447EF80F049EF80F070EF3A
:1000900080F020EE01F0AD51D926AE51DA22DF50CA
:1000A000E7ECE3F00601A26FA2B159EF80F05BEF3D
:1000B00080F070EF80F08551D8B461EF80F063EF8D
:1000C00080F06DEF80F0A2A568EF80F06AEF80F01D
:1000D0006DEF80F00A0E61EF85F0000E61EF85F0A4
:1000E000ADC6D9F4AEC6DAF4DF6A20EE01F0AD5148
:1000F000D926AE51DA22DF5031ECBAF00601A26FF8
:10010000A2A185EF80F087EF80F08AEF80F0030EE8
:1001100061EF85F08551D8B490EF80F092EF80F0D8
:100120009BEF80F0A2A597EF80F099EF80F09BEF16
:1001300080F06AEF80F0ADC632F6AEC633F6000E40
:10014000356F000E346F7EECC4F032C6ABF633C6AA
:10015000ACF6040E0601AB19AC11D8A4B2EF80F0D6
:10016000B4EF80F0B7EF80F0010E61EF85F0AC5195
:1001700009E1020EAB5DD8A0C0EF80F0C2EF80F0C5
:10018000C5EF80F00D0E61EF85F020EE2CF0AD5143
:10019000D926AE51DA22DEC49EF6DEC49FF6DEC456
:1001A000A0F6DEC4A1F63B0EAD25046E000EAE2116
:1001B000056E5EECE9F0020E05180410D8B4E3EF0A
:1001C00080F0E5EF80F0E7EF80F0C2EF80F0460EC0
:1001D0000601AD25046E000EAE21056E5EECE9F061
:1001E00004C5A7F605C5A8F60601A96BAA6BA75119
:1001F000A811A911AA11D8A400EF81F002EF81F093
:1002000012EF81F0540EAD25046E000EAE21056E86
:1002100077ECE0F004C5A7F605C5A8F606C5A9F673
:1002200007C5AAF6060120EE18F0AD51D926AE5149
:10023000DA22A7C6DEF4A8C6DEF4A9C6DEF4AAC692
:10024000DEF420EE40F0AD51D926AE51DA2210EEA8
:1002500003F0AD51E126AE51E222DFC4E7F420EE17
:1002600003F0AD51D926AE51DA22DE04D8B43BEF0B
:1002700081F03DEF81F04EEF81F020EE03F0AD51C3
:10028000D926AE51DA22020EDE18D8B44AEF81F038
:100290004CEF81F04EEF81F0C2EF80F0A7C604F57D
:1002A000A8C605F5A9C606F5AAC607F520EE03F00F
:1002B000AD51D926AE51DA22DF50866F8651086ED5
:1002C000096A0A6A0B6AD5ECE5F004C5A7F605C50C
:1002D000A8F606C5A9F607C5AAF6060120EE3DF068
:1002E000AD51D926AE51DA22DF50866F876B20EEF2
:1002F0000AF0AD51D926AE51DA2286C6DEF487C6A1
:10030000DDF420EE0AF0AD51D926AE51DA22DE50EE
:10031000DE10D8B48EEF81F090EF81F0C2EF80F064
:1003200020EE0AF0AD51D926AE51DA22DEC486F6AF
:10033000DDC487F620EE0AF0AD51D926AE51DA229F
:10034000DEC488F6DDC489F6FF0E88258A6FFF0EAD
:1003500089218B6F86518A158C6F87518B158D6F14
:100360008C518D11D8B4B7EF81F0B9EF81F0BBEFAC
:1003700081F0C2EF80F0410EAD25046E000EAE217B
:10038000056E5EECE9F0060120EE08F0AD51D926CD
:10039000AE51DA2204C5DEF405C5DDF420EE08F026
:1003A000AD51D926AE51DA22DEC486F6DDC487F619
:1003B0000F0E8617000E871786518711D8B4E3EF0A
:1003C00081F0E5EF81F0E7EF81F0C2EF80F0430EBE
:1003D000AD25046E000EAE21056E5EECE9F004C59D
:1003E0009AF605C59BF606019C6B9D6B9A519B1175
:1003F0009C119D11D8A4FFEF81F001EF82F011EF65
:1004000082F0500EAD25046E000EAE21056E77EC25
:10041000E0F004C59AF605C59BF606C59CF607C52F
:100420009DF63E0E0601AD25046E000EAE21056E52
:100430005EECE9F004C598F605C599F606019851F9
:100440009911D8A426EF82F028EF82F02AEF82F0EB
:10045000C2EF80F020EE08F0AD51D926AE51DA227D
:10046000DEC486F6DDC487F6040E886FD890873325
:100470008633882F36EF82F098518625896F9951FF
:1004800087218A6F8B6BD8B08B2B8C6BA7518925FA
:10049000946FA8518A21956FA9518B21966FAA510B
:1004A0008C21976F94519A5D95519B5996519C5907
:1004B00097519D59D8B05FEF82F061EF82F063EF02
:1004C00082F0C2EF80F094519A5D046E95519B5971
:1004D000056E96519C59066E97519D59076E20EEF8
:1004E0000AF0AD51D926AE51DA22DEC486F6DDC45B
:1004F00087F686C608F587C609F50A6A0B6AD6EC40
:10050000E1F004C5A3F605C5A4F606C5A5F607C522
:10051000A6F60601A351A411A511A611D8A493EF24
:1005200082F095EF82F097EF82F0C2EF80F0000E3C
:10053000AC6F000EAB6FF60EA35DFF0EA459FF0E5D
:10054000A5590F0EA659D8B0A8EF82F0AAEF82F0F5
:10055000AEEF82F0000EAC6F030EAB6FA651A5118B
:1005600009E1F60EA35DFF0EA459D8B0BAEF82F0F0
:10057000BCEF82F0C0EF82F0000EAC6F020EAB6FEA
:10058000A651A51109E1F60EA35D0F0EA459D8B02E
:10059000CCEF82F0CEEF82F0D2EF82F0000EAC6FA3
:1005A000010EAB6FAB51AC11D8A4D9EF82F0DBEFE9
:1005B00082F0DDEF82F0C2EF80F0020EA325866F9D
:1005C000000EA421876F000EA521886F000EA621C2
:1005D000896F20EE14F0AD51D926AE51DA2286C6CD
:1005E000DEF487C6DEF488C6DEF489C6DEF420EECB
:1005F0001CF0AD51D926AE51DA229EC6DEF49FC65C
:10060000DEF4A0C6DEF4A1C6DEF498519E25866F06
:1006100099519F21876F000EA021886F000EA121A4
:10062000896F20EE20F0AD51D926AE51DA2286C670
:10063000DEF487C6DEF488C6DEF489C6DEF49451A3
:100640009E25866F95519F21876F9651A021886FB7
:100650009751A121896F20EE28F0AD51D926AE51D6
:10066000DA2286C6DEF487C6DEF488C6DEF489C6E2
:10067000DEF4030EAB19AC11D8A441EF83F043EFC5
:1006800083F0A0EF83F05A0EAD25046E000EAE216C
:10069000056E5EECE9F004500510D8B452EF83F01B
:1006A00054EF83F056EF83F0C2EF80F0060120EEA6
:1006B00008F0AD51D926AE51DA22DE50DE10D8B4A2
:1006C00064EF83F066EF83F068EF83F0C2EF80F0B1
:1006D0005C0EAD25046E000EAE21056E77ECE0F0E9
:1006E000060120EE24F0AD51D926AE51DA2204C520
:1006F000DEF405C5DEF406C5DEF407C5DEF420EE43
:1007000014F0AD51D926AE51DA22DEC486F6DEC42D
:1007100087F6DEC488F6DEC489F6020ED8908637E6
:10072000873788378937E82E8EEF83F086C68EF6B6
:1007300087C68FF688C690F689C691F640EF84F09A
:1007400020EE08F0AD51D926AE51DA22DE50DE108F
:10075000D8A4ADEF83F0AFEF83F0B1EF83F0C2EF39
:1007600080F020EE20F0AD51D926AE51DA22DEC461
:1007700086F6DEC487F6DEC488F6DEC489F6A751A5
:1007800086258A6FA85187218B6FA95188218C6F8C
:10079000AA5189218D6F20EE24F0AD51D926AE519A
:1007A000DA228AC6DEF48BC6DEF48CC6DEF48DC691
:1007B000DEF4020EAB19AC11D8B4E1EF83F0E3EF35
:1007C00083F029EF84F020EE14F0AD51D926AE511C
:1007D000DA22DEC486F6DEC487F6DEC488F6DEC41E
:1007E00089F6010E86158A6F000E87158B6F000E35
:1007F00088158C6F000E89158D6F20EE14F0AD51A9
:10080000D926AE51DA22DEC404F5DEC405F5DEC415
:1008100006F5DEC407F5030E086E000E096E000E25
:100820000A6E000E0B6ED5ECE5F0D890073206325A
:100830000532043206018A5104248E6F8B51052043
:100840008F6F8C510620906F8D510720916F40EF74
:1008500084F020EE14F0AD51D926AE51DA22DEC478
:1008600086F6DEC487F6DEC488F6DEC489F6D89044
:1008700086358E6F87358F6F8835906F8935916F8C
:10088000FF0E8E25866F010E8F21876F000E90213F
:10089000886F000E9121896F0A0E54EF84F0D89072
:1008A0008933883387338633E82E4FEF84F020EE88
:1008B00018F0AD51D926AE51DA228651DE5C87514F
:1008C000DE588851DE588951DE58D8B06AEF84F07E
:1008D0006CEF84F06EEF84F0C2EF80F020EE10F049
:1008E000AD51D926AE51DA22FF0EDE6EFF0EDE6E5E
:1008F000FF0EDE6EFF0EDD6EDD52DD5210EE0CF0EF
:10090000AD51E126AE51E222DEC4E6F4DEC4E6F4E7
:10091000DEC4E6F4DEC4E6F420EE05F0AD51D926DF
:10092000AE51DA22800EDF6E030EAB19AC11D8A4E3
:100930009CEF84F09EEF84F04BEF85F0600EAD25C8
:10094000046E000EAE21056E5EECE9F004040510A5
:10095000D8A4ADEF84F0AFEF84F04BEF85F0ADC6D7
:1009600019F6AEC61AF6010E06019E251B6F000E83
:100970009F211C6F000EA0211D6F000EA1211E6F74
:10098000C2ECDDF00009D8A4C8EF84F0CAEF84F00F
:100990004BEF85F0060120EE05F0AD51D926AE51A2
:1009A000DA22DF6A2E0EAD25046E020EAE21056E30
:1009B0005EECE9F0550E041807E1AA0E0518D8A45C
:1009C000E4EF84F0E6EF84F04BEF85F0300E0601A3
:1009D000AD25046E000EAE21056E77ECE0F0520EF0
:1009E00004180DE1520E05180AE1610E061807E120
:1009F000410E0718D8A4FFEF84F001EF85F04BEF0C
:100A000085F0140E0601AD25046E020EAE21056EB2
:100A100077ECE0F0720E04180DE1720E05180AE191
:100A2000410E061807E1610E0718D8A41AEF85F0E9
:100A30001CEF85F04BEF85F0180E0601AD25046E16
:100A4000020EAE21056E77ECE0F0060120EE10F00C
:100A5000AD51D926AE51DA2204C5DEF405C5DEF467
:100A600006C5DEF407C5DEF41C0EAD25046E020ECD
:100A7000AE21056E77ECE0F0060120EE0CF0AD51F2
:100A8000D926AE51DA2204C5DEF405C5DEF406C56A
:100A9000DEF407C5DEF4ADC6D9F4AEC6DAF4ABC6F3
:100AA000DFF40701214B222B060120EE06F0AD51A9
:100AB000D926AE51DA2221C7DEF422C7DDF46DEF6C
:100AC00080F01200000E0501886F62C589F563C5CC
:100AD0008AF564C58BF565C58CF58CBF74EF85F020
:100AE00072EF85F088EF85F0010E886F89C504F5F7
:100AF0008AC505F58BC506F58CC507F542ECE9F00E
:100B000004C589F505C58AF506C58BF507C58CF5BD
:100B1000000E05018E6F000E8D6F1DC77CF51EC780
:100B20007DF58851D8B497EF85F099EF85F0ADEF5A
:100B300085F08851D8A49FEF85F0A1EF85F0A7EF4D
:100B400085F0000E6E6F2B0E6D6FABEF85F0000E13
:100B50006E6F2D0E6D6F6DC588F589C504F58AC55C
:100B600005F58BC506F58CC507F5CCECD8F004046B
:100B70000510D8A4BEEF85F0C0EF85F0F3EF85F047
:100B800005018851D8B4C7EF85F0C9EF85F0D2EFE1
:100B900085F088C500F87C07D8A07D07000E8E6F11
:100BA000010E8D6F000E8D25046E080E8E21056ED0
:100BB000F70E066EFF0E076EECECE8F00501FD0E79
:100BC0007C27FF0E7D2360C515F561C516F5000E67
:100BD000176E080E186E7CC519F57DC51AF528EC40
:100BE000E2F094EF8AF089C504F58AC505F58BC556
:100BF00006F58CC507F5CCECD8F004500510D8A448
:100C000004EF86F006EF86F026EF86F005018851A6
:100C1000D8B40DEF86F00FEF86F018EF86F088C598
:100C200000F87C07D8A07D07000E8E6F010E8D6F37
:100C3000000E8D25046E080E8E21056EFB0E066ECD
:100C4000FF0E076EECECE8F0DEEF85F0000E05011C
:100C50008F6F000E906F800E916F3F0E926F000E9F
:100C6000776F000E766F89C504F58AC505F58BC5CB
:100C700006F58CC507F5000E086E000E096E000E15
:100C80000A6E000E0B6E2EECE1F0D8B04AEF86F043
:100C90004CEF86F02BEF87F059EF86F078C58FF593
:100CA00079C590F57AC591F57BC592F50501764B2E
:100CB000772B8FC512F590C513F591C514F592C524
:100CC00015F5000E166E000E176E200E186E410EF2
:100CD000196EFCECABF012C578F513C579F514C5A7
:100CE0007AF515C57BF505017851895D046E79515A
:100CF0008A59056E7A518B59066E7B518C59076E55
:100D0000BDECE6F007BE90EF86F007500610051028
:100D100009E1020E045CD8A090EF86F092EF86F015
:100D20004EEF86F078C52BF579C52CF57AC52DF5F3
:100D30007BC52EF589C52FF58AC530F58BC531F5F4
:100D40008CC532F548ECD7F0D8A0A9EF86F0ABEF10
:100D500086F04EEF86F005018F51895D046E90514B
:100D60008A59056E91518B59066E92518C59076EB6
:100D7000BDECE6F007BECAEF86F00750061005107E
:100D800007E1020E045CD8B0C8EF86F0CAEF86F027
:100D900012EF87F08FC589F590C58AF591C58BF55F
:100DA00092C58CF52BEF87F08FC52BF590C52CF5F0
:100DB00091C52DF592C52EF5000E2F6E000E306EEA
:100DC000200E316E410E326E07ECB0F02BC58FF560
:100DD0002CC590F52DC591F52EC592F50501760728
:100DE000D8A077078F51895D046E90518A59056E9E
:100DF00091518B59066E92518C59076EBDECE6F0FD
:100E000007BE10EF87F007500610051007E1020E2D
:100E1000045CD8B00EEF87F010EF87F012EF87F088
:100E2000CAEF86F089C52BF58AC52CF58BC52DF543
:100E30008CC52EF58FC52FF590C530F591C531F5D0
:100E400092C532F548ECD7F0D8A029EF87F02BEF08
:100E500087F0D4EF86F066C570F570C571F50701AF
:100E600020BF35EF87F037EF87F03DEF87F01FC7E2
:100E700069F520C76AF542EF87F0000E05016A6F39
:100E8000060E696F69C574F56AC575F50501744B81
:100E9000752B660E7119D8A450EF87F052EF87F0CA
:100EA00072EF87F077BF59EF87F057EF87F065EF64
:100EB00087F0000E8F6F000E906F800E916F3F0EC7
:100EC000926F000E776F000E766F670E7019D8B4B0
:100ED0006CEF87F06EEF87F072EF87F07651742732
:100EE00077517523000E876F000E866F89C57EF5DA
:100EF0008AC57FF58BC580F58CC581F58FC578F5E2
:100F000090C579F591C57AF592C57BF503EF88F028
:100F10007EC52BF57FC52CF580C52DF581C52EF539
:100F20008FC52FF590C530F591C531F592C532F5D5
:100F300007ECB0F02BC544F52CC545F52DC546F59D
:100F40002EC547F579ECC2F044C582F545C583F559
:100F500046C584F547C585F582C504F583C505F505
:100F600084C506F585C507F5C5ECD6F004C572F550
:100F700005C573F57EC52BF57FC52CF580C52DF510
:100F800081C52EF582C516F583C517F584C518F5FC
:100F900085C519F58FC512F590C513F591C514F5E2
:100FA00092C515F5FCECABF012C52FF513C530F565
:100FB00014C531F515C532F5FFECE7F02BC57EF50C
:100FC0002CC57FF52DC580F52EC581F58FC52BF578
:100FD00090C52CF591C52DF592C52EF5000E2F6EFE
:100FE000000E306E200E316E410E326E07ECB0F006
:100FF0002BC58FF52CC590F52DC591F52EC592F515
:101000000501864B872B7451865D8751800A586E87
:101010007551800A5858D8A010EF88F012EF88F068
:1010200088EF87F08FC512F590C513F591C514F5BB
:1010300092C515F5000E166E000E176EA00E186EF6
:10104000400E196EFCECABF012C582F513C583F5AA
:1010500014C584F515C585F57EC52BF57FC52CF522
:1010600080C52DF581C52EF582C52FF583C530F5D8
:1010700084C531F585C532F548ECD7F0D8B043EFDB
:1010800088F045EF88F050EF88F0000E0501826F80
:10109000000E836F000E846F000E856F79EF88F06D
:1010A0007EC504F57FC505F580C506F581C507F544
:1010B00082C508F583C509F584C50AF585C50BF514
:1010C0002EECE1F0D8A067EF88F069EF88F079EFB7
:1010D00088F0050172B16FEF88F071EF88F079EF59
:1010E00088F0000E826F000E836F000E846F000E7A
:1010F000856F89C504F58AC505F58BC506F58CC5D0
:1011000007F582C508F583C509F584C50AF585C5C7
:101110000BF511ECA3F004C57EF505C57FF506C5FA
:1011200080F507C581F57EC52BF57FC52CF580C5FB
:101130002DF581C52EF5000E166E000E176E200ED1
:10114000186E410E196E78C512F579C513F57AC57A
:1011500014F57BC515F5FCECABF012C52FF513C5E6
:1011600030F514C531F515C532F548ECD7F0D8A0E7
:10117000BCEF88F0BEEF88F0E7EF88F00501764B12
:10118000772B78C512F579C513F57AC514F57BC5AB
:1011900015F5000E166E000E176E200E186E410E1D
:1011A000196EFCECABF012C578F513C579F514C5D2
:1011B0007AF515C57BF5660E05017119D8A4E3EF24
:1011C00088F0E5EF88F0E7EF88F0744B752B78C571
:1011D0008FF579C590F57AC591F57BC592F576C501
:1011E00067F577C568F5000E05016F6F000E6C6F2F
:1011F000000E6B6F000E876F000E866FE5EF89F0B3
:101200007EC52BF57FC52CF580C52DF581C52EF546
:101210008FC52FF590C530F591C531F592C532F5E2
:1012200007ECB0F02BC544F52CC545F52DC546F5AA
:101230002EC547F579ECC2F044C582F545C583F566
:1012400046C584F547C585F582C504F583C505F512
:1012500084C506F585C507F5C5ECD6F005BE3CEF9F
:1012600089F0055007E10A0E045CD8B03AEF89F026
:101270003CEF89F04CEF89F082C504F583C505F594
:1012800084C506F585C507F5C5ECD6F004C572F52D
:1012900005C573F551EF89F0000E0501736F090E56
:1012A000726F05016F51D8A458EF89F05AEF89F099
:1012B00082EF89F068BF61EF89F05FEF89F082EF1C
:1012C00089F0000E8D25D96E080E8E21DA6E2E0E55
:1012D000DF6E8D4B8E2B7C07D8A07D07010E6F6FC4
:1012E00082EF89F0000E8D25D96E080E8E21DA6E00
:1012F000300EDF6E8D4B8E2B7C07D8A07D076B07E1
:10130000D8A06C076B516C11D8A489EF89F08BEFD2
:1013100089F072EF89F0000E8D25D96E080E8E21AE
:10132000DA6E7251300FDF6E8D4B8E2B7C07D8A09A
:101330007D077EC52BF57FC52CF580C52DF581C5B4
:101340002EF582C516F583C517F584C518F585C534
:1013500019F58FC512F590C513F591C514F592C511
:1013600015F5FCECABF012C52FF513C530F514C51F
:1013700031F515C532F5FFECE7F02BC57EF52CC530
:101380007FF52DC580F52EC581F58FC52BF590C550
:101390002CF591C52DF592C52EF5000E2F6E000E81
:1013A000306E200E316E410E326E07ECB0F02BC560
:1013B0008FF52CC590F52DC591F52EC592F505013B
:1013C0006707D8A06807864B872B7451865D8751C5
:1013D000800A586E7551800A5858D8B0F2EF89F0DB
:1013E000F4EF89F002EF8AF08EBF00EF8AF08E51A1
:1013F00009E14B0E8D5DD8A000EF8AF002EF8AF074
:1014000000EF89F0000E876F4F0E866F000E862565
:10141000D96E080E8721DA6EDF6A000E586E080E4C
:10142000596E8D51585E8E51595A86515824046E0A
:1014300087515920056E000E066E080E076E8DC589
:1014400008F58EC509F58CECE7F005018D51865D38
:101450008D6F8E5187598E6F8851D8A432EF8AF0E4
:1014600035EF8AF0010E36EF8AF0000E866F876B3B
:101470005CA23DEF8AF03FEF8AF06DEF8AF04FEF0C
:101480008AF08D07D8A08E07000E8D25D96E080E24
:101490008E21DA6E300EDF6E7C07D8A07D077C517E
:1014A000865D8751800A586E7D51800A5858D8B0A1
:1014B0005CEF8AF05EEF8AF06DEF8AF08D51865D09
:1014C0008751800A586E8E51800A5858D8A06BEF09
:1014D0008AF06DEF8AF041EF8AF08851D8B473EF4B
:1014E0008AF075EF8AF080EF8AF08D07D8A08E071A
:1014F000000E8D25D96E080E8E21DA6E88C5DFF4B8
:1015000086517C5F87517D5B60C515F561C516F519
:10151000000E8D25176E080E8E21186E7CC519F5EC
:101520007DC51AF528ECE2F0120064C67BF665C6AC
:101530007CF668C6D9F469C6DAF4DE6ADD6A62C68A
:10154000BCF563C6BDF58B0E0501BE6F060EBF6F01
:101550004BECD8F006017A6F7A51D8A4B2EF8AF03A
:10156000B4EF8AF0C4EF8AF020EE0FF06251D92672
:101570006351DA22DF507A6F7A51D8B4C2EF8AF021
:10158000C4EF8AF0C7EF8AF07A51D8EF8EF020EEE0
:101590000EF06251D9266351DA22DFB2D2EF8AF01F
:1015A000D4EF8AF0D7EF8AF0070ED8EF8EF020EE56
:1015B00010F06251D9266351DA2210EE10F0625118
:1015C000E1266351E222E6C46EF6E6C46FF6E6C495
:1015D00070F6E6C471F666516E25726F67516F2121
:1015E000736F000E7021746F000E7121756FDE50E5
:1015F000725DDE507359DE507459DE507559D8B0A3
:1016000004EF8BF006EF8BF014EF8BF020EE10F070
:101610006251D9266351DA22DEC46AF6DDC46BF664
:101620006A1D666F6B1D676F66516711D8A41BEF4B
:101630008BF01DEF8BF01FEF8BF0CFEF8EF020EED5
:1016400010F06251D9266351DA22FF0EDE146A6F60
:10165000010EDE146B6F000EDE146C6F000EDE14D4
:101660006D6F6A516B116C116D11D8A43AEF8BF04C
:101670003CEF8BF013EF8EF020EE10F06251D92684
:101680006351DA22DEC46AF6DEC46BF6DEC46CF6A1
:10169000DEC46DF60A0E52EF8BF0D8906D336C33CA
:1016A0006B336A33E82E4DEF8BF020EE0AF08B514E
:1016B000D9268C51DA22DEC46EF6DDC46FF6FF0E39
:1016C0006E25706FFF0E6F21716F6A5170157D6FFF
:1016D0006B5171157E6F7D517E11D8A472EF8BF026
:1016E00074EF8BF03CEF8CF020EE10F06251D926B5
:1016F0006351DA22DE50DE10DE10DE10D8A483EF54
:101700008BF085EF8BF0B6EF8BF020EE06F0625198
:10171000D9266351DA22DEC481F6DEC482F6DEC445
:1017200083F6DEC484F68151821183118411D8A41A
:101730009CEF8BF09EEF8BF0D2EF8BF062C645F6FC
:1017400063C646F6000E476F000E486F000E496FE5
:10175000000E4A6FC3EC9DF045C681F646C682F680
:1017600047C683F648C684F6D2EF8BF062C645F6CC
:1017700063C646F620EE14F06251D9266351DA2290
:10178000DEC447F6DEC448F6DEC449F6DEC44AF6D7
:10179000C3EC9DF045C681F646C682F647C683F681
:1017A00048C684F606018151821183118411D8A4A0
:1017B000DCEF8BF0DEEF8BF0E0EF8BF0CFEF8EF015
:1017C0008105821183118411D8A4E9EF8BF0EBEF2E
:1017D0008BF0F6EF8BF020EE0FF06251D9266351BB
:1017E000DA22020EDF6E020ED8EF8EF081290AE1B6
:1017F000822908E1832906E18429D8A402EF8CF02C
:1018000004EF8CF00FEF8CF020EE0FF06251D92630
:101810006351DA22010EDF6E010ED8EF8EF020EE5A
:1018200014F06251D9266351DA2281C6DEF482C6F1
:10183000DEF483C6DEF484C6DEF420EE06F06251E8
:10184000D9266351DA22DE50DE10DE10DE10D8A475
:101850002CEF8CF02EEF8CF03CEF8CF020EE06F0AD
:101860006251D9266351DA2281C6DEF482C6DEF4E3
:1018700083C6DEF484C6DEF420EE0EF06251D92673
:101880006351DA22DFAE47EF8CF049EF8CF08CEF3A
:101890008CF0220E62250501F76F000E0601632110
:1018A0000501F86F060120EE18F06251D926635148
:1018B000DA22DEC4F9F5DEC4FAF5DEC4FBF5DEC4D7
:1018C000FCF5000E0501FE6F010EFD6F060120EE16
:1018D00001F08B51D9268C51DA22DF50E1ECCDF0AA
:1018E0000009D8B476EF8CF078EF8CF083EF8CF0B1
:1018F000060120EE0FF06251D9266351DA22010E63
:10190000DF6E0CEF8CF0060120EE0EF06251D9264E
:101910006351DA227F0EDF168BC610F58CC611F5E7
:1019200020EE14F06251D9266351DA22DEC412F59A
:10193000DEC413F5DEC414F5DEC415F528ECDEF0C4
:1019400010C587F611C588F612C589F613C58AF643
:1019500006018751881189118A11D8A4B2EF8CF041
:10196000B4EF8CF0BEEF8CF020EE0FF06251D92670
:101970006351DA22020EDF6EF3EF8BF07D51872781
:101980007E518823000E8923000E8A2366C66AF6DC
:1019900067C66BF6090E6C6FD8906B336A336C2F89
:1019A000CCEF8CF06AC67FF66BC680F67F51801153
:1019B000D8B4DDEF8CF0DFEF8CF0A3EF8DF07F512A
:1019C0007D256A6F80517E216B6F20EE0AF08B516E
:1019D000D9268C51DA226A51DE5C6B51DE58D8B0C0
:1019E000F4EF8CF0F6EF8CF006EF8DF020EE0AF0BD
:1019F0008B51D9268C51DA22DEC46AF6DDC46BF62F
:101A00007D516A5D7F6F7E516B59806F7BC6F7F5A4
:101A10007CC6F8F587C6F9F588C6FAF589C6FBF5E0
:101A20008AC6FCF57FC6FDF580C6FEF520EE01F006
:101A30008B51D9268C51DA22DF50E1ECCDF0000930
:101A4000D8B425EF8DF027EF8DF032EF8DF0060141
:101A500020EE0FF06251D9266351DA22010EDF6EBB
:101A60000CEF8CF006017F516A6F80516B6F6C6BCD
:101A70006D6B20EE18F06251D9266351DA22DEC474
:101A80006EF6DEC46FF6DEC470F6DEC471F6875102
:101A90006E5D726F88516F59736F89517059746F91
:101AA0008A517159756F6A51725D6B5173596C51DE
:101AB00074596D517559D8B060EF8DF062EF8DF0AB
:101AC00092EF8DF0220E6225046E000E6321056EEA
:101AD00020EE18F06251D9266351DA22DEC46AF68C
:101AE000DDC46BF687516A5F88516B5B090ED89035
:101AF0006A376B37E82E77EF8DF06A517B25066EDB
:101B00006B517C21076E020E096E000E086E8CEC84
:101B1000E7F0060120EE0EF06251D9266351DA2279
:101B20007F0EDF167FC66AF680C66BF6090ED89068
:101B30006A376B37E82E97EF8DF06AC685F66BC66D
:101B400086F669EF8EF020EE18F06251D9266351C7
:101B5000DA228751DE180FE18851DE180CE1895135
:101B6000DE1809E18A51DE18D8B4B9EF8DF0BBEF69
:101B70008DF004EF8EF020EE0AF06251D926635109
:101B8000DA2210EE10F06251E1266351E222DE50BB
:101B9000E65CDE50E658DE50E658DE50E658D8B037
:101BA000D4EF8DF0D6EF8DF004EF8EF0220E62258B
:101BB000006F000E6321016F87C602F688C603F628
:101BC00089C604F68AC605F6000E076F010E066F79
:101BD00020EE01F08B51D9268C51DA22DF5054ECE3
:101BE000CCF00009D8B4F7EF8DF0F9EF8DF004EFE9
:101BF0008EF0060120EE0FF06251D9266351DA22F1
:101C0000010EDF6E0CEF8CF0060120EE18F0625131
:101C1000D9266351DA2287C6DEF488C6DEF489C687
:101C2000DEF48AC6DEF420EE10F06251D92663514C
:101C3000DA22DEC46AF6DDC46BF6FF0E6A156C6F3D
:101C4000010E6B156D6F6C510008856F6D51D8A03A
:101C5000E82A0208866F8551665D86516759D8B0BB
:101C600034EF8EF036EF8EF03AEF8EF066C685F6E2
:101C700067C686F620EE10F06251D9266351DA224B
:101C8000DEC46AF6DDC46BF6FF0E6A156C6F010EDA
:101C90006B156D6F6C5162256E6F6D5163216F6FA7
:101CA000220E6E25046E000E6F21056E7BC606F5B2
:101CB0007CC607F585C608F586C609F58CECE7F005
:101CC000060120EE0EF06251D9266351DA22000E91
:101CD000DB8E8551665F8651675B68C6D9F469C63D
:101CE000DAF48551DE268651DD2285517B27865127
:101CF0007C2320EE10F06251D9266351DA228551FF
:101D0000DE268651DE22000EDE22DE2220EE10F0DC
:101D10006251D9266351DA2210EE0AF06251E126AF
:101D20006351E222DE50E65CDE50E658DE50E658B3
:101D3000DE50E658D8A09FEF8EF0A1EF8EF0B1EF05
:101D40008EF020EE0AF06251D9266351DA22DEC409
:101D500076F6DEC477F6DEC478F6DEC479F6BFEF39
:101D60008EF020EE10F06251D9266351DA22DEC4E3
:101D700076F6DEC477F6DEC478F6DEC479F620EEB9
:101D80000AF06251D9266351DA2276C6DEF477C6AC
:101D9000DEF478C6DEF479C6DEF414EF8BF020EEC4
:101DA0000EF06251D9266351DA22000EDB8C000E50
:101DB000120062C6BCF563C6BDF5850E0501BE6F97
:101DC000060EBF6F4BECD8F00601806F8051D8A48F
:101DD000ECEF8EF0EEEF8EF0F6EF8EF020EE0FF0DF
:101DE0006251D9266351DA22DF50806F8051D8B416
:101DF000FCEF8EF0FEEF8EF001EF8FF08051DFEF01
:101E000092F020EE0AF06251D9266351DA22645131
:101E1000DE5C6551DE586651DE586751DE58D8B039
:101E200014EF8FF016EF8FF031EF8FF020EE0EF001
:101E30006251D9266351DA22DFB221EF8FF023EF0E
:101E40008FF031EF8FF020EE0AF06251D926635106
:101E5000DA22DEC464F6DEC465F6DEC466F6DEC4ED
:101E600067F620EE10F06251D9266351DA22DEC403
:101E700078F6DEC479F6DEC47AF6DEC47BF6000EB0
:101E80007C6F000E7D6F000E7E6F000E7F6F20EE68
:101E900010F06251D9266351DA227CC6DEF47DC689
:101EA000DEF47EC6DEF47FC6DEF464516511661191
:101EB0006711D8B45EEF8FF060EF8FF0E4EF91F030
:101EC00020EE0AF08551D9268651DA22DEC468F662
:101ED000DDC469F668516A6F69516B6F6C6B6D6B2D
:101EE000090ED8906A376B376C376D37E82E71EF73
:101EF0008FF06AC681F66BC682F66CC683F66DC635
:101F000084F6785179117A117B11D8B48AEF8FF069
:101F10008CEF8FF029EF90F0FF0E6425046EFF0E1A
:101F20006521056EFF0E6621066EFF0E6721076EA6
:101F300081C608F582C609F583C60AF584C60BF585
:101F4000D6ECE1F004C568F605C569F606C56AF683
:101F500007C56BF6FF0E06017825046EFF0E79218A
:101F6000056EFF0E7A21066EFF0E7B21076E81C67D
:101F700008F582C609F583C60AF584C60BF5D6ECCA
:101F8000E1F004500601685D0550695906506A5930
:101F900007506B59D8A0CFEF8FF0D1EF8FF029EF1A
:101FA00090F0FF0E8125686FFF0E8221696FFF0E92
:101FB00083216A6FFF0E84216B6F681D6C6F691D32
:101FC0006D6F6A1D6E6F6B1D6F6FFF0E7825706FE2
:101FD000FF0E7921716FFF0E7A21726FFF0E7B2148
:101FE000736F6C517015746F6D517115756F6E5103
:101FF0007215766F6F517315776F20EE10F0625186
:10200000D9266351DA2274C6DEF475C6DEF476C6CC
:10201000DEF477C6DEF420EE10F06251D92663516B
:10202000DA22DE50645FDE50655BDE50665BDD50B9
:10203000675B20EE14F06251D9266351DA22DEC4C8
:1020400087F6DEC488F6DEC489F6DEC48AF6A4EF1D
:1020500090F020EE06F06251D9266351DA22DEC4F8
:1020600087F6DEC488F6DEC489F6DEC48AF68751B8
:10207000881189118A11D8A440EF90F042EF90F0B6
:1020800096EF90F062C645F663C646F6000E476FBF
:10209000000E486F000E496F000E4A6FC3EC9DF0B2
:1020A00045C687F646C688F647C689F648C68AF604
:1020B00006018705881189118A11D8A462EF90F072
:1020C00064EF90F06FEF90F020EE0FF06251D926A0
:1020D0006351DA22020EDF6E020EDFEF92F08729E3
:1020E0000AE1882908E1892906E18A29D8A47BEF39
:1020F00090F07DEF90F088EF90F020EE0FF06251BD
:10210000D9266351DA22010EDF6E010EDFEF92F065
:1021100020EE06F06251D9266351DA2287C6DEF43A
:1021200088C6DEF489C6DEF48AC6DEF420EE14F03A
:102130006251D9266351DA2287C6DEF488C6DEF4FE
:1021400089C6DEF48AC6DEF48751881189118A11A6
:10215000D8B4ADEF90F0AFEF90F0E4EF91F069EF0D
:1021600091F08151645F8251655B8351665B84515C
:10217000675B20EE10F06251D9266351DA2281515B
:10218000DE268251DE228351DE228451DE2220EEC1
:102190000EF06251D9266351DA22DFA2D2EF90F01D
:1021A000D4EF90F000EF91F062C645F663C646F6B4
:1021B00087C647F688C648F689C649F68AC64AF6EB
:1021C000C3EC9DF045C687F646C688F647C689F635
:1021D00048C68AF606018751881189118A11D8A448
:1021E000F4EF90F0F6EF90F016EF91F0000E646FC0
:1021F000000E656F000E666F000E676F78EF91F04E
:1022000062C624F663C625F687C626F688C627F674
:1022100089C628F68AC629F611ECAEF024C687F6E0
:1022200025C688F626C689F627C68AF606018729B6
:102230000AE1882908E1892906E18A29D8A423EF3F
:1022400091F025EF91F02FEF91F020EE0FF0625119
:10225000D9266351DA22010EDF6E85EF90F08A51A4
:102260008911881109E1020E875DD8A03AEF91F03B
:102270003CEF91F051EF91F020EE14F08551D9260A
:102280008651DA22DE50875DDE508859DE5089594A
:10229000DE508A59D8A04FEF91F051EF91F05BEFEB
:1022A00091F020EE0FF06251D9266351DA22020E2E
:1022B000DF6E6CEF90F020EE14F06251D92663517E
:1022C000DA2287C6DEF488C6DEF489C6DEF48AC662
:1022D000DEF46451815D65518259665183596751BD
:1022E0008459D8A076EF91F078EF91F0B1EF90F0AB
:1022F00020EE10F06251D9266351DA226451DE26B5
:102300006551DE226651DE226751DE22FF0E641522
:10231000686F010E6515696F000E66156A6F000E15
:1023200067156B6F685169116A116B11D8B49BEF17
:1023300091F09DEF91F0E4EF91F085C610F586C61F
:1023400011F587C612F588C613F589C614F58AC635
:1023500015F528ECDEF010C57CF611C57DF612C52A
:102360007EF613C57FF606017C517D117E117F112B
:10237000D8A4BDEF91F0BFEF91F0C9EF91F020EE3E
:102380000FF06251D9266351DA22020EDF6E6CEF34
:1023900090F064C668F665C669F666C66AF667C6F2
:1023A0006BF60A0ED9EF91F0D8906B336A3369332C
:1023B0006833E82ED4EF91F068517C2769517D2372
:1023C0006A517E236B517F2320EE10F06251D92693
:1023D0006351DA2210EE0AF06251E1266351E222E3
:1023E000DE50E65CDE50E658DE50E658DE50E65839
:1023F000D8B0FDEF91F0FFEF91F01BEF92F020EEDF
:1024000010F06251D9266351DA2210EE0AF06251BF
:10241000E1266351E222DEC4E6F4DEC4E6F4DEC463
:10242000E6F4DEC4E6F420EE0EF06251D9266351E4
:10243000DA22000EDB8C20EE10F06251D9266351B7
:10244000DA22FF0EDE14686F010EDE14696F000ED3
:10245000DE146A6F000EDE146B6F685169116A1129
:102460006B11D8B436EF92F038EF92F0FEEF8EF0A9
:1024700020EE18F06251D9266351DA227C51DE1821
:102480000FE17D51DE180CE17E51DE1809E17F512C
:10249000DE18D8B44EEF92F050EF92F0FEEF8EF0CF
:1024A00020EE0EF06251D9266351DA22DFAE5BEFE7
:1024B00092F05DEF92F0A0EF92F0220E62250501FE
:1024C000F76F000E060163210501F86F060120EE8B
:1024D00018F06251D9266351DA22DEC4F9F5DEC460
:1024E000FAF5DEC4FBF5DEC4FCF5000E0501FE6F57
:1024F000010EFD6F060120EE01F08551D9268651AF
:10250000DA22DF50E1ECCDF00009D8B48AEF92F086
:102510008CEF92F097EF92F0060120EE0FF06251EF
:10252000D9266351DA22010EDF6E85EF90F00601A5
:1025300020EE0EF06251D9266351DA227F0EDF16AB
:10254000220E6225006F000E6321016F7CC602F629
:102550007DC603F67EC604F67FC605F6000E076F3D
:10256000010E066F20EE01F08551D9268651DA2240
:10257000DF5054ECCCF00009D8B4C1EF92F0C3EFB7
:1025800092F0CEEF92F0060120EE0FF06251D926C4
:102590006351DA22010EDF6E85EF90F0060120EE26
:1025A00018F06251D9266351DA227CC6DEF47DC66A
:1025B000DEF47EC6DEF47FC6DEF4FEEF8EF012009F
:1025C0000601AF51B011D8A4E8EF92F0EAEF92F013
:1025D000EDEF92F0090E9FEF96F03F0EB317B10E9C
:1025E000816F060E826FD40E836F060E846FB3C6A2
:1025F00085F600EC80F00601D66FD651D8A403EF23
:1026000093F005EF93F08FEF96F0D4C6D7F6D5C6CA
:10261000D8F6D70E846F060E856FB1C686F6B2C6A1
:1026200087F66BECC1F00601D66FD651D8A41BEF2C
:1026300093F01DEF93F026EF93F0FEAF22EF93F0AF
:1026400024EF93F026EF93F0060ED66FB3C6B4F6E0
:102650001C0EB417D8B42FEF93F031EF93F04CEF7A
:1026600094F0D651D8B437EF93F039EF93F04DEFA3
:1026700093F0040ED619D8A440EF93F042EF93F0F4
:102680004AEF93F0D70E886F060E896F13ECDCF0DB
:102690000601D66FB38765EF93F0DBC6B4F6110E73
:1026A000B417D8B456EF93F058EF93F05CEF93F073
:1026B000070ED66F65EF93F0B3A561EF93F063EF6C
:1026C00093F065EF93F0080ED66FD651D8A46BEF58
:1026D00093F06DEF93F06FEF94F0B3A772EF93F078
:1026E00074EF93F06FEF94F0ADECEAF004C5C0F630
:1026F00005C5C1F606C5C2F607C5C3F60E0E06012E
:10270000F125046E000EF221056EC0C606F5C1C6A5
:1027100007F5C2C608F5C3C609F59FECE5F0160E2D
:102720000601F125046E000EF221056EC0C606F505
:10273000C1C607F5C2C608F5C3C609F59FECE5F0AA
:10274000D4C60BF5D5C60CF5F1C60DF5F2C60EF5DF
:102750006BECE4F00BC5C4F60CC5C5F60DC5C6F6AA
:102760000EC5C7F6060120EE0BF0F151D926F25145
:10277000DA22200EDF6ED4C608F5D5C609F5F1C6FB
:102780000AF5F2C60BF5000E0C6E000E0D6E000E73
:102790000E6E000E0F6EB4ECE7F01C0E0601F12574
:1027A000046E000EF221056E000E066E000E076E1E
:1027B000000E086E000E096E9FECE5F0060120EE9B
:1027C00004F0D451D926D551DA22010EDF6EC4515E
:1027D000C511C611C711D8B4F0EF93F0F2EF93F022
:1027E0006FEF94F020EE2CF0D451D926D551DA2297
:1027F000DEC4C8F6DEC4C9F6DEC4CAF6DEC4CBF653
:10280000D70E456F060E466FC4C647F6C5C648F6D6
:10281000C6C649F6C7C64AF6000E4B6F000E4C6F8F
:10282000000E4D6F000E4E6F32ECBEF00601D66FFB
:10283000D651D8A41EEF94F020EF94F06FEF94F0EF
:10284000D4C619F6D5C61AF6C8C61BF6C9C61CF6F4
:10285000CAC61DF6CBC61EF6C2ECDDF00601D66F69
:10286000FF0EC425B46FFF0EC521B56FFF0EC62144
:10287000B66FFF0EC721B76F20EE0CF0D451D926EA
:10288000D551DA22B4C6DEF4B5C6DEF4B6C6DEF43F
:10289000B7C6DEF46FEF94F0D651D8A452EF94F09F
:1028A00054EF94F06FEF94F0DBA959EF94F05BEFE5
:1028B00094F05FEF94F0040ED66F6FEF94F0B3A333
:1028C00064EF94F066EF94F06FEF94F0DBA16BEFA0
:1028D00094F06DEF94F06FEF94F0070ED66FD65131
:1028E000D8A475EF94F077EF94F09DEF94F0B3A730
:1028F0007CEF94F07EEF94F07FEF94F0B38D20EEB8
:102900002CF0D451D926D551DA2210EE1CF0AF515B
:10291000E126B051E222DEC4E6F4DEC4E6F4DEC411
:10292000E6F4DEC4E6F420EE20F0AF51D926B05133
:10293000DA22F1C6DEF4F2C6DDF4D651D8A4A3EF54
:1029400094F0A5EF94F08FEF96F0D4C60BF5D5C6B2
:102950000CF5F1C60DF5F2C60EF56BECE4F00601D0
:1029600020EE06F0AF51D926B051DA220BC5DEF4C5
:102970000CC5DEF40DC5DEF40EC5DEF41C0EF1252B
:10298000046E000EF221056E77ECE0F0060120EEF9
:102990000AF0AF51D926B051DA2204C5DEF405C5DC
:1029A000DEF406C5DEF407C5DEF4AFC6D9F4B0C662
:1029B000DAF4D4C6DEF4D5C6DDF420EE06F0D45148
:1029C000D926D551DA2210EE02F0AF51E126B051EE
:1029D000E222DEC4E6F4DDC4E5F420EE0EF0AF51F1
:1029E000D926B051DA22B3C6DFF420EE0FF0AF5192
:1029F000D926B051DA22DF6A20EE18F0AF51D9267D
:102A0000B051DA22DE6ADE6ADE6ADD6A20EE10F09C
:102A1000AF51D926B051DA22DE6ADE6ADE6ADD6A9B
:102A2000220EAF25046E000EB021056E000E076E5B
:102A3000000E066E020E096E000E086E26ECE9F01E
:102A40000601B3AB26EF95F028EF95F08FEF96F0E7
:102A500020EE0AF0AF51D926B051DA22DE50DE1056
:102A6000DE10DE10D8B437EF95F039EF95F08FEF28
:102A700096F020EE0AF0AF51D926B051DA2210EECE
:102A800010F0AF51E126B051E222DEC4E6F4DEC41C
:102A9000E6F4DEC4E6F4DEC4E6F420EE0AF0D45137
:102AA000D926D551DA22DEC4B4F6DDC4B5F6B45168
:102AB000B66FB551B76FB86BB96B090ED890B63712
:102AC000B737B837B937E82E5EEF95F0B6C6BCF623
:102AD000B7C6BDF6B8C6BEF6B9C6BFF620EE06F05C
:102AE000AF51D926B051DA22DEC4D0F6DEC4D1F619
:102AF000DEC4D2F6DEC4D3F620EE0AF0AF51D926FA
:102B0000B051DA22DEC4CCF6DEC4CDF6DEC4CEF699
:102B1000DEC4CFF6CAEF95F0AFC624F6B0C625F6F0
:102B2000D0C626F6D1C627F6D2C628F6D3C629F6D1
:102B300011ECAEF024C6D0F625C6D1F626C6D2F6E4
:102B400027C6D3F60601D351D211D11107E1020EE7
:102B5000D05DD8B0AEEF95F0B0EF95F0B2EF95F054
:102B6000020ED66FD0290AE1D12908E1D22906E167
:102B7000D329D8A4BEEF95F0C0EF95F0C2EF95F041
:102B8000010ED66FBC51CC5FBD51CD5BBE51CE5B4B
:102B9000BF51CF5BD651D8A4D0EF95F0D2EF95F0CE
:102BA000E1EF95F0CC51BC5DCD51BD59CE51BE5930
:102BB000CF51BF59D8A0DFEF95F0E1EF95F08CEF42
:102BC00095F020EE14F0AF51D926B051DA22D0C6DC
:102BD000DEF4D1C6DEF4D2C6DEF4D3C6DEF4D651BE
:102BE000D8A4F5EF95F0F7EF95F08FEF96F0FF0E84
:102BF000CC15B46F010ECD15B56F000ECE15B66FA6
:102C0000000ECF15B76FB451B511B611B711D8B4C6
:102C10000CEF96F00EEF96F08FEF96F0D4C610F50D
:102C2000D5C611F5D0C612F5D1C613F5D2C614F526
:102C3000D3C615F528ECDEF010C5C8F611C5C9F6E7
:102C400012C5CAF613C5CBF60601C851C911CA117F
:102C5000CB11D8A42EEF96F030EF96F034EF96F02B
:102C6000020ED66F8FEF96F0CCC6B4F6CDC6B5F691
:102C7000CEC6B6F6CFC6B7F60A0E44EF96F0D89099
:102C8000B733B633B533B433E82E3FEF96F0C851BF
:102C9000B425B86FC951B521B96FCA51B621BA6F01
:102CA000CB51B721BB6F20EE18F0AF51D926B051F0
:102CB000DA22B8C6DEF4B9C6DEF4BAC6DEF4BBC6A4
:102CC000DEF4220EAF25006F000EB021016F20EE62
:102CD00018F0AF51D926B051DA22DEC402F6DEC4B4
:102CE00003F6DEC404F6DEC405F6000E076F010E1F
:102CF000066F20EE01F0D451D926D551DA22DF50EB
:102D000054ECCCF00009D8B488EF96F08AEF96F036
:102D10008FEF96F0010E0601D66F8FEF96F0060149
:102D2000D651D8B496EF96F098EF96F09EEF96F0C5
:102D3000AFC6D9F4B0C6DAF4DE6ADD6AD651120045
:102D400095C5D9F496C5DAF4DEC4F6F4DDC4F7F41B
:102D5000000EF86E0800F550250AD8A4B2EF96F0E0
:102D6000B4EF96F01CEF9AF095C5D9F496C5DAF455
:102D7000DE2A000EDD22000E07011E6F000E1D6F01
:102D80001DC75CF51F692069000E05019D6FE9EF05
:102D900096F05C8295C5D9F496C5DAF4DE2A000E69
:102DA000DD22E9EF96F0010E9D6FE9EF96F095C5F3
:102DB000D9F496C5DAF4DEC4F6F4DDC4F7F4000EF7
:102DC000F86E0800F550300AD8B4C9EF96F0D3EF8A
:102DD00096F09D51D8B4EFEF96F0F1EF96F0D7EF63
:102DE00096F095C50AF596C50BF597C50CF598C5EF
:102DF0000DF55BECDDF00AC51DF70BC51EF70701ED
:102E00001EBF07EF97F005EF97F00CEF97F05C808F
:102E10001D6D1E1FD8B01E2B95C5D9F496C5DAF4CA
:102E2000DEC4F6F4DDC4F7F4000EF86E0800F550C9
:102E30002E0AD8A41EEF97F020EF97F035EF97F009
:102E400095C5D9F496C5DAF4DE2A000EDD2295C5C3
:102E50000AF596C50BF597C50CF598C50DF55BEC15
:102E6000DDF00AC51FF70BC520F795C5D9F496C547
:102E7000DAF4DEC4F6F4DDC4F7F4000EF86E0800F0
:102E8000F550630AD8A447EF97F049EF97F06DEF3C
:102E900097F095C5D9F496C5DAF4DE2A000EDD2246
:102EA00097C5D9F498C5DAF4DFC499F5020EDE2689
:102EB000DFC49AF5000EDD2299C5D9F49AC5DAF47B
:102EC000DF500501A26F93C50EF594C50FF5A2C59D
:102ED00010F58EECDEF032EF9AF095C5D9F496C578
:102EE000DAF4DEC4A3F5DDC4A4F5A3C5F6F4A4C5E5
:102EF000F7F4000EF86E0800F5C4A2F58CEF97F019
:102F0000A34BA42BA4EF97F0690EA26FA4EF97F048
:102F1000000EA26FA4EF97F00501A251580AD8B491
:102F200084EF97F03C0AD8B484EF97F00D0AD8B438
:102F300084EF97F0050AD8B480EF97F0140AD8B45C
:102F400084EF97F088EF97F0A3C5F6F4A4C5F7F4E3
:102F5000000EF86E0800F550640AD8B4B2EF97F08E
:102F6000B4EF97F0FBEF97F0A3C5F6F4A4C5F7F420
:102F7000000EF86E0800F550690AD8A4C2EF97F069
:102F8000C4EF97F024EF98F0FBEF97F097C5D9F4D2
:102F900098C5DAF4DFC499F5020EDE26DFC49AF58F
:102FA000000EDD2299C5D9F49AC5DAF4DEC49EF587
:102FB000DDC49FF5000E9FBFFF0EA06FA16F06EF4F
:102FC00098F097C5D9F498C5DAF4DFC499F5040EE2
:102FD000DE26DFC49AF5000EDD2299C5D9F49AC524
:102FE000DAF4DEC49EF5DEC49FF5DEC4A0F5DEC4CF
:102FF000A1F506EF98F0A251690AD8B4C6EF97F090
:10300000050AD8B4E1EF97F006EF98F0010EA3257A
:10301000996F000EA4219A6F95C5D9F496C5DAF47C
:1030200099C5DEF49AC5DDF493C51EF594C51FF568
:103030009EC520F59FC521F5A0C522F5A1C523F5A4
:103040006BECC6F032EF9AF0A3C5F6F4A4C5F7F422
:10305000000EF86E0800F550780AD8B432EF98F0F8
:1030600034EF98F07CEF98F0A3C5F6F4A4C5F7F41C
:10307000000EF86E0800F550580AD8A442EF98F0F8
:1030800044EF98F0C2EF98F07CEF98F097C5D9F430
:1030900098C5DAF4DFC499F5020EDE26DFC49AF58E
:1030A000000EDD2299C5D9F49AC5DAF4DEC49BF589
:1030B000DDC49CF59BC59EF59CC59FF5A06BA16BDF
:1030C00087EF98F097C5D9F498C5DAF4DFC499F57D
:1030D000040EDE26DFC49AF5000EDD2299C5D9F470
:1030E0009AC5DAF4DEC49EF5DEC49FF5DEC4A0F511
:1030F000DEC4A1F587EF98F0A251690AD8B446EF73
:1031000098F0050AD8B462EF98F087EF98F0010EB6
:10311000A325996F000EA4219A6F95C5D9F496C581
:10312000DAF499C5DEF49AC5DDF4B0EF98F093C5F2
:103130001EF594C51FF59EC520F59FC521F5A0C5B8
:1031400022F5A1C523F5A3C5F6F4A4C5F7F4000E36
:10315000F86E0800F5C424F5A7ECCEF032EF9AF033
:10316000A3C5F6F4A4C5F7F4000EF86E0800F550F8
:10317000580AD8B497EF98F0200AD8B497EF98F08F
:10318000C2EF98F0000E9D6F95C5D9F496C5DAF49C
:10319000DEC4F6F4DDC4F7F4000EF86E0800F55056
:1031A000730AD8A4D6EF98F0D8EF98F0E3EF98F030
:1031B00095C5D9F496C5DAF4DE2A000EDD22010E9B
:1031C0009D6F39EF99F095C5D9F496C5DAF4DEC450
:1031D000F6F4DDC4F7F4000EF86E0800F5506C0A42
:1031E000D8A4F5EF98F0F7EF98F039EF99F095C57E
:1031F000D9F496C5DAF4DEC499F5DDC49AF5010E6A
:103200009927000E9A2399C5F6F49AC5F7F4000E93
:10321000F86E0800F5506C0AD8A411EF99F013EF7E
:1032200099F039EF99F095C5D9F496C5DAF4DEC472
:1032300099F5DDC49AF5020E9927000E9A2399C5D7
:10324000F6F49AC5F7F4000EF86E0800F550730A0C
:10325000D8A42DEF99F02FEF99F039EF99F0030EE4
:1032600095C5D9F496C5DAF4DE26000EDD22DFEF2F
:1032700098F09D51D8B43FEF99F041EF99F05DEF90
:1032800099F093C50EF594C50FF597C5D9F498C577
:10329000DAF4DFC499F5020EDE26DFC49AF5000EDB
:1032A000DD2299C5D9F49AC5DAF4DEC410F5DDC47F
:1032B00011F5ECECC9F032EF9AF095C5D9F496C54A
:1032C000DAF4DEC4A3F5DDC4A4F5A3C5F6F4A4C501
:1032D000F7F4000EF86E0800F5C4A2F57CEF99F043
:1032E000A34BA42B8BEF99F06C0EA26F8BEF99F090
:1032F000000EA26F8BEF99F0A2514C0AD8B470EF78
:1033000099F02A0AD8B474EF99F00A0AD8B470EF89
:1033100099F078EF99F0A3C5F6F4A4C5F7F4000E80
:10332000F86E0800F550660AD8A499EF99F09BEF63
:1033300099F013EF9AF0D1EF99F097C5D9F498C5A9
:10334000DAF4DFC499F5040EDE26DFC49AF5000E28
:10335000DD2299C5D9F49AC5DAF4DEC49EF5DEC43F
:103360009FF5DEC4A0F5DEC4A1F5DCEF99F097C5AA
:10337000D9F498C5DAF4DFC499F5040EDE26DFC46B
:103380009AF5000EDD2299C5D9F49AC5DAF4DEC4A7
:103390009EF5DEC49FF5DEC4A0F5DEC4A1F5DCEF2A
:1033A00099F0A2514C0AD8B4B7EF99F0200AD8B4DA
:1033B0009DEF99F0DCEF99F0010EA325996F000EB7
:1033C000A4219A6F95C5D9F496C5DAF499C5DEF4AF
:1033D0009AC5DDF405EF9AF093C560F594C561F5E3
:1033E0009EC562F59FC563F5A0C564F5A1C565F5E9
:1033F000A3C5F6F4A4C5F7F4000EF86E0800F5C4F2
:1034000066F562EC85F032EF9AF0A3C5F6F4A4C538
:10341000F7F4000EF86E0800F550660AD8B4ECEF29
:1034200099F013EF9AF095C5D9F496C5DAF4DE2A2F
:10343000000EDD2232EF9AF095C5D9F496C5DAF484
:10344000DEC4F6F4DDC4F7F4000EF86E0800F550A3
:10345000056E066A93C507F594C508F5F3ECDEF032
:1034600013EF9AF0120040C65BF641C65CF644C604
:10347000D9F445C6DAF4DE6ADD6A3EC6BCF53FC65D
:10348000BDF5670E0501BE6F060EBF6F4BECD8F0A1
:103490000601566F5651D8A450EF9AF052EF9AF0A9
:1034A00062EF9AF020EE0FF03E51D9263F51DA221A
:1034B000DF50566F5651D8B460EF9AF062EF9AF031
:1034C00065EF9AF05651C2EF9DF020EE0EF03E519E
:1034D000D9263F51DA22DFB070EF9AF072EF9AF0FE
:1034E00075EF9AF0070EC2EF9DF020EE10F03E51FE
:1034F000D9263F51DA22DEC446F6DEC447F6DEC4E2
:1035000048F6DEC449F620EE0AF03E51D9263F5176
:10351000DA22DEC44AF6DEC44BF6DEC44CF6DEC464
:103520004DF646514A5D526F47514B59536F4851C2
:103530004C59546F49514D59556F4251466F435143
:10354000476F486B496B4651525D4751535948513B
:10355000545949515559D8B0B0EF9AF0B2EF9AF09A
:10356000B6EF9AF052C642F653C643F642514311A3
:10357000D8A4BDEF9AF0BFEF9AF0C1EF9AF0C1EF77
:103580009DF020EE10F03E51D9263F51DA22FF0E79
:10359000DE14466F010EDE14476F000EDE14486F16
:1035A000000EDE14496F4651471148114911D8A445
:1035B000DCEF9AF0DEEF9AF054EF9DF020EE10F081
:1035C0003E51D9263F51DA22DEC446F6DEC447F624
:1035D000DEC448F6DEC449F60A0EF4EF9AF0D8903D
:1035E0004933483347334633E82EEFEF9AF020EE65
:1035F0000AF06751D9266851DA22DEC44AF6DDC4E2
:103600004BF6FF0E4A254C6FFF0E4B214D6F465176
:103610004C155D6F47514D155E6F5D515E11D8A41D
:1036200014EF9BF016EF9BF093EF9BF020EE10F061
:103630003E51D9263F51DA22DE50DE10DE10DE1078
:10364000D8A425EF9BF027EF9BF037EF9BF020EEFF
:1036500006F03E51D9263F51DA22DEC457F6DEC4C9
:1036600058F6DEC459F6DEC45AF653EF9BF03EC658
:1036700024F63FC625F620EE14F03E51D9263F51E0
:10368000DA22DEC426F6DEC427F6DEC428F6DEC45F
:1036900029F611ECAEF024C657F625C658F626C614
:1036A00059F627C65AF606015A515911581107E121
:1036B000020E575DD8B05FEF9BF061EF9BF06CEFAF
:1036C0009BF020EE0FF03E51D9263F51DA22020E38
:1036D000DF6E020EC2EF9DF057290AE1582908E17A
:1036E000592906E15A29D8A478EF9BF07AEF9BF08C
:1036F00085EF9BF020EE0FF03E51D9263F51DA22A4
:10370000010EDF6E010EC2EF9DF020EE14F03E516F
:10371000D9263F51DA2257C6DEF458C6DEF459C620
:10372000DEF45AC6DEF467C610F568C611F520EE61
:1037300014F03E51D9263F51DA22DEC412F5DEC420
:1037400013F5DEC414F5DEC415F528ECDEF010C563
:1037500063F611C564F612C565F613C566F6060173
:103760006351641165116611D8A4B9EF9BF0BBEFEA
:103770009BF0C5EF9BF020EE0FF03E51D9263F5154
:10378000DA22020EDF6E69EF9BF05D5163275E5116
:103790006423000E6523000E662342C646F643C628
:1037A00047F6090E486FD89047334633482FD3EF7A
:1037B0009BF046C65FF647C660F65F516011D8B40D
:1037C000E4EF9BF0E6EF9BF0AFEF9CF05F515D25DF
:1037D000466F60515E21476F20EE0AF06751D9268F
:1037E0006851DA224651DE5C4751DE58D8B0FBEF13
:1037F0009BF0FDEF9BF00DEF9CF020EE0AF067517F
:10380000D9266851DA22DEC446F6DDC447F65D519A
:10381000465D5F6F5E514759606F5BC600F65CC6E0
:1038200001F663C602F664C603F665C604F666C60C
:1038300005F65FC606F660C607F620EE01F0675192
:10384000D9266851DA22DF5054ECCCF00009D8B404
:103850002CEF9CF02EEF9CF039EF9CF0060120EE4F
:103860000FF03E51D9263F51DA22010EDF6E82EF72
:103870009BF0060120EE0EF03E51D9263F51DA2290
:10388000DFAE45EF9CF047EF9CF09DEF9CF05F5161
:10389000466F6051476F486B496B20EE18F03E5100
:1038A000D9263F51DA22DEC44AF6DEC44BF6DEC426
:1038B0004CF6DEC44DF663514A5D4E6F64514B5970
:1038C0004F6F65514C59506F66514D59516F46516C
:1038D0004E5D47514F594851505949515159D8B0EF
:1038E00074EF9CF076EF9CF09DEF9CF020EE18F0CA
:1038F0003E51D9263F51DA22DEC446F6DDC447F6F2
:103900006351465F6451475B090ED890463747378D
:10391000E82E85EF9CF046515B25046E47515C21F3
:10392000056E220E3E25066E000E3F21076E020E2A
:10393000096E000E086E8CECE7F05FC646F660C6B6
:1039400047F6090ED890060146374737E82EA2EF12
:103950009CF046C661F647C662F6A1EF9DF020EEE8
:1039600018F03E51D9263F51DA226351DE180FE19B
:103970006451DE180CE16551DE1809E16651DE186C
:10398000D8B4C5EF9CF0C7EF9CF045EF9DF020EE5A
:103990000EF03E51D9263F51DA22DFAED2EF9CF035
:1039A000D4EF9CF017EF9DF0220E3E250501F76F36
:1039B000000E06013F210501F86F060120EE18F008
:1039C0003E51D9263F51DA22DEC4F9F5DEC4FAF5BC
:1039D000DEC4FBF5DEC4FCF5000E0501FE6F010E32
:1039E000FD6F060120EE01F06751D9266851DA22F9
:1039F000DF50E1ECCDF00009D8B401EF9DF003EF0A
:103A00009DF00EEF9DF0060120EE0FF03E51D926FD
:103A10003F51DA22010EDF6E82EF9BF0060120EEAD
:103A20000EF03E51D9263F51DA227F0EDF16220ECC
:103A30003E25006F000E3F21016F63C602F664C68B
:103A400003F665C604F666C605F6000E076F010E9E
:103A5000066F20EE01F06751D9266851DA22DF5057
:103A600054ECCCF00009D8B438EF9DF03AEF9DF05B
:103A700045EF9DF0060120EE0FF03E51D9263F5153
:103A8000DA22010EDF6E82EF9BF0060120EE18F0C5
:103A90003E51D9263F51DA2263C6DEF464C6DEF415
:103AA00065C6DEF466C6DEF420EE10F03E51D9267F
:103AB0003F51DA22DEC446F6DDC447F6FF0E461556
:103AC000486F010E4715496F48510008616F495111
:103AD000D8A0E82A0208626F6151425D62514359E1
:103AE000D8B075EF9DF077EF9DF07BEF9DF042C66B
:103AF00061F643C662F65BC604F55CC605F520EECA
:103B000010F03E51D9263F51DA22DEC446F6DDC41C
:103B100047F6FF0E4615486F010E4715496F48518D
:103B20003E254A6F49513F214B6F220E4A25066EB2
:103B3000000E4B21076E61C608F562C609F58CECD4
:103B4000E7F006016151425F6251435B44C6D9F41C
:103B500045C6DAF46151DE266251DD2261515B27F0
:103B600062515C2320EE10F03E51D9263F51DA22FB
:103B70006151DE266251DE22000EDE22DE22B6EF29
:103B80009AF0000E120045C6D9F446C6DAF4DEC437
:103B90005CF6DDC45DF606014751481149114A1132
:103BA000D8A4D5EF9DF0D7EF9DF00FEF9EF020EE5B
:103BB0000CF05C51D9265D51DA22DEC454F6DEC425
:103BC00055F6DEC456F6DEC457F65451551156115B
:103BD0005711D8B4EEEF9DF0F0EF9DF005EF9EF099
:103BE00020EE14F05C51D9265D51DA22DE50545D8E
:103BF000DE505559DE505659DE505759D8A003EFC4
:103C00009EF005EF9EF074EF9EF0010E546F000ED3
:103C1000556F000E566F000E576F74EF9EF045C63D
:103C200024F646C625F647C626F648C627F649C6F0
:103C300028F64AC629F611ECAEF024C65EF625C673
:103C40005FF626C660F627C661F60601615160116F
:103C50005F1107E1020E5E5DD8B031EF9EF033EFE9
:103C60009EF03DEF9EF0010E456F000E466F000E78
:103C7000476F000E486F9AEFA0F05E290AE15F29B6
:103C800008E1602906E16129D8A449EF9EF04BEFD5
:103C90009EF055EF9EF05EC645F65FC646F660C6DE
:103CA00047F661C648F69AEFA0F020EE14F05C519A
:103CB000D9265D51DA22DE505E5DDE505F59DE505E
:103CC0006059DE506159D8B068EF9EF06AEF9EF0FF
:103CD0006CEF9EF04BEF9EF047C654F648C655F683
:103CE00049C656F64AC657F620EE10F05C51D92662
:103CF0005D51DA22DE50DE10DE10DE10D8A483EF34
:103D00009EF085EF9EF08FEF9EF0000E456F000E47
:103D1000466F000E476F000E486F9AEFA0F0000E3E
:103D2000586F000E596F000E5A6F000E5B6F4751AF
:103D300054190DE1485155190AE14951561907E145
:103D40004A515719D8A4A7EF9EF0A9EF9EF04FEF64
:103D50009FF0010E5425586F000E5521596F000E2B
:103D600056215A6F000E57215B6F20EE14F05C5104
:103D7000D9265D51DA22DE50585DDE505959DE50A9
:103D80005A59DE505B59D8A0C8EF9EF0CAEF9EF09A
:103D9000D2EF9EF0020E586F000E596F000E5A6F50
:103DA000000E5B6F45C624F646C625F658C626F6B5
:103DB00059C627F65AC628F65BC629F611ECAEF0AE
:103DC00024C65EF625C65FF626C660F627C661F6EF
:103DD00006015E055F1160116111D8B4F2EF9EF02B
:103DE000F4EF9EF04BEF9EF05E290AE15F2908E1B7
:103DF000602906E16129D8A400EF9FF002EF9FF04F
:103E000004EF9FF04BEF9EF05E515F116011611166
:103E1000D8B40DEF9FF00FEF9FF04FEF9FF020EE23
:103E20000CF05C51D9265D51DA22DEC45EF6DEC4A8
:103E30005FF6DEC460F6DEC461F6615160115F11A9
:103E400009E1020E5E5DD8A028EF9FF02AEF9FF0F7
:103E500047EF9FF020EE14F05C51D9265D51DA2235
:103E6000DE505E5DDE505F59DE506059DE506159B4
:103E7000D8B03DEF9FF03FEF9FF047EF9FF05EC659
:103E800054F65FC655F660C656F661C657F6000E84
:103E9000586F000E596F000E5A6F000E5B6F58512D
:103EA00059115A115B11D8A458EF9FF05AEF9FF0A7
:103EB000E7EF9FF054C658F655C659F656C65AF65F
:103EC00057C65BF6010E5827000E59235A235B2371
:103ED00020EE14F05C51D9265D51DA22DE50585D97
:103EE000DE505959DE505A59DE505B59D8A07BEF4D
:103EF0009FF07DEF9FF094EF9FF0020E586F000E41
:103F0000596F000E5A6F000E5B6F575156115511C5
:103F100007E1020E545DD8B090EF9FF092EF9FF052
:103F200094EF9FF085EF9EF045C624F646C625F631
:103F300058C626F659C627F65AC628F65BC629F68D
:103F400011ECAEF024C65EF625C65FF626C660F616
:103F500027C661F606015E515F1160116111D8A498
:103F6000B4EF9FF0B6EF9FF0B8EF9FF0E7EF9FF050
:103F70005E055F1160116111D8B4C1EF9FF0C3EF0E
:103F80009FF04BEF9EF05E290AE15F2908E160296E
:103F900006E16129D8A4CFEF9FF0D1EF9FF0D3EFD6
:103FA0009FF04BEF9EF0545158190DE1555159199E
:103FB0000AE156515A1907E157515B19D8A4E3EFAA
:103FC0009FF0E5EF9FF062EF9FF085EF9EF05CC6FB
:103FD00024F65DC625F658C626F659C627F65AC6F3
:103FE00028F65BC629F6FF0E2A6FFF0E2B6FFF0E19
:103FF0002C6FFF0E2D6F9BECA0F00601536F5351F9
:10400000D8A405EFA0F007EFA0F02AEFA0F04751E9
:10401000481149114A11D8B410EFA0F012EFA0F0E6
:104020002AEFA0F05CC624F65DC625F647C626F644
:1040300048C627F649C628F64AC629F658C62AF6BB
:1040400059C62BF65AC62CF65BC62DF69BECA0F093
:104050000601536F5351D8A430EFA0F032EFA0F017
:104060007CEFA0F020EE0CF05C51D9265D51DA22F5
:1040700058C6DEF459C6DEF45AC6DEF45BC6DEF47A
:1040800020EE10F05C51D9265D51DA2210EE14F0CA
:104090005C51E1265D51E222FE0EE6244F6FFF0ED9
:1040A000E620506FFF0EE620516FFF0EE620526FA4
:1040B000DE504F5DDE505059DE505159DE5052599E
:1040C000D8A065EFA0F067EFA0F072EFA0F020EEAF
:1040D00010F05C51D9265D51DA22DE06000EDE5A60
:1040E000DE5ADE5A20EE05F05C51D9265D51DA2207
:1040F000000EDB8092EFA0F05305D8B482EFA0F061
:1041000084EFA0F08EEFA0F0010E586F000E596FF3
:10411000000E5A6F000E5B6F92EFA0F0586959695C
:104120005A695B6958C645F659C646F65AC647F6F7
:104130005BC648F61200020E0601446F2951281191
:10414000271109E1020E265DD8A0A9EFA0F0ABEF80
:10415000A0F00FEFA3F020EE14F02451D926255142
:10416000DA22DE50265DDE502759DE502859DE5017
:104170002959D8B0BEEFA0F0C0EFA0F00FEFA3F028
:10418000FCEFA2F026C642F627C643F6D89043318C
:104190002F6F42312E6F2E5142272F51432324C6B9
:1041A00019F625C61AF620EE20F02451D9262551FD
:1041B000DA22DEC42EF6DEC42FF6DEC430F6DEC40C
:1041C00031F642C632F643C633F6090E346FD89044
:1041D00033333233342FE7EFA0F032512E251B6FEB
:1041E00033512F211C6F000E30211D6F000E312125
:1041F0001E6FC2ECDDF00601446F4451D8B403EFEA
:10420000A1F005EFA1F007EFA1F00FEFA3F0FF0E73
:1042100042152E6F010E43152F6F2E512425306F3E
:104220002F512521316F300E3025406F000E312186
:10423000416F424B432B26B120EFA1F022EFA1F0BA
:1042400027EFA1F02AC63CF63D6B41EFA1F02A51C1
:104250002E6F2F6B2E3B2F3BF00E2F172E510F0B77
:104260002F13F00E2E1740C6D9F441C6DAF4DF50F2
:104270000F0B306F316B2E5130113C6F2F513111BC
:104280003D6F40C6D9F441C6DAF43CC6DFF420EEF7
:1042900004F02451D9262551DA22010EDF6E24C6FE
:1042A00019F625C61AF620EE20F02451D9262551FC
:1042B000DA22DEC42EF6DEC42FF6DEC430F6DEC40B
:1042C00031F642C632F643C633F6090E346FD89043
:1042D00033333233342F67EFA1F032512E251B6F69
:1042E00033512F211C6F000E30211D6F000E312124
:1042F0001E6FC2ECDDF00601446F4451D8B483EF69
:10430000A1F085EFA1F087EFA1F00FEFA3F0FF0E72
:1043100042152E6F010E43152F6F2E512425306F3D
:104320002F512521316F300E3025406F000E312185
:10433000416F26B19EEFA1F0A0EFA1F0BEEFA1F07A
:104340002AC62EF62BC62FF62CC630F62DC631F611
:104350002FC62EF630C62FF631C630F6316B0F0E53
:104360002E1740C6D9F441C6DAF4DF50F00B2E11F7
:10437000326F32513E6F3F6BD4EFA1F02AC62EF65A
:104380002BC62FF62CC630F62DC631F6050ECEEF15
:10439000A1F0D890313330332F332E33E82EC9EFCC
:1043A000A1F02E513E6F3F6B40C6D9F441C6DAF4FE
:1043B0003EC6DFF420EE04F02451D9262551DA223E
:1043C000010EDF6E0FEFA3F024C619F625C61AF60C
:1043D00020EE20F02451D9262551DA22DEC42EF613
:1043E000DEC42FF6DEC430F6DEC431F626C632F661
:1043F00027C633F628C634F629C635F633C632F654
:1044000034C633F635C634F6356B2E5132251B6F64
:104410002F5133211C6F305134211D6F3151352103
:104420001E6FC2ECDDF00601446F4451D8B41BEF9F
:10443000A2F01DEFA2F01FEFA2F00FEFA3F026C62F
:104440002EF627C62FF6D8902E372F37FF0E2E15B3
:10445000306F010E2F15316F30512425326F3151DD
:104460002521336F300E3225046E000E3321056E88
:104470002AC606F52BC607F5D9ECE9F0060120EEB1
:1044800004F02451D9262551DA22010EDF6E0FEFF8
:10449000A3F024C619F625C61AF620EE20F0245102
:1044A000D9262551DA22DEC42EF6DEC42FF6DEC46C
:1044B00030F6DEC431F626C632F627C633F628C6F5
:1044C00034F629C635F6080E6BEFA2F0D8903533D6
:1044D000343333333233E82E66EFA2F02E513225D7
:1044E0001B6F2F5133211C6F305134211D6F3151FF
:1044F00035211E6FC2ECDDF00601446F4451D8B483
:1045000084EFA2F086EFA2F088EFA2F00FEFA3F005
:1045100026C62EF627C62FF6D8902E372F37D890DE
:104520002E372F37FF0E2E15306F010E2F15316FDE
:1045300030512425326F31512521336F300E322511
:10454000046E000E3321056E77ECE0F0000E0414CB
:104550000601346F000E0514356F000E0614366F19
:10456000F00E0714376FFF0E2A15386FFF0E2B154C
:10457000396FFF0E2C153A6F0F0E2D153B6F34510E
:1045800038112A6F355139112B6F36513A112C6F72
:1045900037513B112D6F26C62EF627C62FF6D89021
:1045A0002E372F37D8902E372F37FF0E2E15306F1E
:1045B000010E2F15316F30512425326F31512521D5
:1045C000336F300E3225046E000E3321056E2AC67D
:1045D00006F52BC607F52CC608F52DC609F59FEC88
:1045E000E5F0060120EE04F02451D9262551DA2207
:1045F000010EDF6E0FEFA3F024C6D9F425C6DAF45E
:10460000DF50010AD8B4C2EFA0F0030AD8B4E4EF37
:10461000A1F0010AD8B449EFA2F00FEFA3F0445182
:1046200012000750800B106E07500724126E06AE62
:104630001CEFA3F01EEFA3F01FEFA3F012801250A7
:10464000D8B425EFA3F027EFA3F03CEFA3F0122896
:10465000D8A42DEFA3F02FEFA3F037EFA3F0000EB7
:10466000046E000E056E000E066E000E076E068EBE
:10467000000E076E44EFA3F0000E046E000E056EF0
:10468000000E066E000E076E0B50800B116E105060
:104690001118D8B44EEFA3F050EFA3F051EFA3F0F0
:1046A000108C0B500B24116E0AAE59EFA3F05BEF88
:1046B000A3F05CEFA3F011801150D8B462EFA3F027
:1046C00064EFA3F079EFA3F01128D8A46AEFA3F068
:1046D0006CEFA3F074EFA3F0000E086E000E096EED
:1046E000000E0A6E000E0B6E0A8E000E0B6E81EF2E
:1046F000A3F0000E086E000E096E000E0A6E000E8A
:104700000B6E1250115CD8B088EFA3F08AEFA3F0C3
:10471000B1EFA3F010AC8FEFA3F091EFA3F093EF04
:10472000A3F0800E101A12C513F511C512F513C5AA
:1047300011F504C513F508C504F513C508F505C53D
:1047400013F509C505F513C509F506C513F50AC521
:1047500006F513C50AF507C513F50BC507F513C50F
:104760000BF5000E136E125011C50CF50D6A0C5EA0
:10477000000E0D5A0DBEC6EFA3F00D5009E11A0E42
:104780000C5CD8A0C6EFA3F0C8EFA3F0FFEFA3F036
:104790000450051006100710D8A4D1EFA3F0D4EFF1
:1047A000A3F0010ED5EFA3F0000E136E000E046E01
:1047B000000E056E000E066E000E076E11C512F596
:1047C00008EFA4F013A0E7EFA3F0E9EFA3F0EFEFF9
:1047D000A3F0D89013300109136EF1EFA3F0D89035
:1047E000133204A0F6EFA3F0F8EFA3F0F9EFA3F073
:1047F000138E07340732063205320432122A115062
:10480000125CD8A006EFA4F008EFA4F0E2EFA3F04A
:1048100010BC0DEFA4F00FEFA4F04FEFA4F0125076
:10482000D8A415EFA4F017EFA4F021EFA4F0000E28
:10483000046E000E056E000E066E000E076E70EF21
:10484000A5F008500426095005220A5006220B50F4
:10485000072207A02EEFA4F030EFA4F0DCEFA4F0C5
:1048600013A035EFA4F037EFA4F03DEFA4F0D890FB
:1048700013300109136E3FEFA4F0D890133204A057
:1048800044EFA4F046EFA4F047EFA4F0138E0734F2
:104890000732063205320432122ADCEFA4F0085047
:1048A000045C095005580A5006580750800A0C6EDF
:1048B0000B50800A0C58D8B060EFA4F062EFA4F05F
:1048C0008DEFA4F00450085C0C6E055009580D6E75
:1048D00006500A580E6E07500B580F6EFF0E0C2430
:1048E000046EFF0E0D20056EFF0E0E20066EFF0EED
:1048F0000F20076E800E101A136C1350D8A483EF8C
:10490000A4F085EFA4F095EFA4F0010E0426000EAC
:1049100005220622072295EFA4F00850045E0950F4
:10492000055A0A50065A0B50075A04500510061033
:104930000710D8A49EEFA4F0A0EFA4F0D5EFA4F048
:104940001350D8A4A6EFA4F0A8EFA4F0D5EFA4F0DC
:10495000000E046E000E056E000E066E000E076E51
:1049600070EFA5F0D890043605360636073613AE3C
:10497000BCEFA4F0BEEFA4F0BFEFA4F0048013A03E
:10498000C4EFA4F0C6EFA4F0CAEFA4F0D8801336A9
:10499000CCEFA4F0D89013361250D8B4D2EFA4F0D4
:1049A000D4EFA4F0D5EFA4F0120606AEDAEFA4F02F
:1049B000DCEFA4F0B2EFA4F0000E116E13AEE3EF43
:1049C000A4F0E5EFA4F0FDEFA4F013C50CF57F0E05
:1049D0000C16D8B4EEEFA4F0F0EFA4F0F4EFA4F0CE
:1049E000010E116EFDEFA4F004A0F9EFA4F0FBEFAF
:1049F000A4F0FDEFA4F0F0EFA4F01150D8B403EF51
:104A0000A5F005EFA5F030EFA5F0010E0426000E8D
:104A100005220622072207A010EFA5F012EFA5F04D
:104A200030EFA5F004C50CF505C50DF506C50EF56E
:104A300007C50FF50F340F320E320D320C320CC594
:104A400004F50DC505F50EC506F50FC507F51228C9
:104A5000D8B42DEFA5F02FEFA5F030EFA5F0122A76
:104A60001228D8B436EFA5F038EFA5F040EFA5F046
:104A70001250D8A43EEFA5F040EFA5F052EFA5F0FC
:104A8000000E046E000E056E000E066E000E076E20
:104A90001250D8A44EEFA5F050EFA5F052EFA5F0BC
:104AA000000E106E12A057EFA5F059EFA5F05CEFC5
:104AB000A5F0068E5DEFA5F0069ED8901230076E29
:104AC00010AE65EFA5F067EFA5F068EFA5F0078ED3
:104AD00004C504F505C505F506C506F507C507F5C2
:104AE0001200810E07010C6F070E0D6FC7C50EF780
:104AF000C8C50FF710910CC7CCF50DC7CDF5CCC5C7
:104B000004F5CDC505F594ECE9F05A505B10D8B426
:104B10008CEFA5F08EEFA5F095EFA5F0BE0E050188
:104B2000AD6FFC0EAE6FEDECE9F0CCC5BBF5CDC5BD
:104B3000BCF5C3C5BDF5C4C5BEF5010E0501BF6F0B
:104B4000000EC06F18ECD5F0CCC508F5CDC509F541
:104B500025ECEAF0CCC50EF5CDC50FF5000E116EB3
:104B60000A0E106E0AECE6F0C4ECE9F0000E2B6EB3
:104B7000000E2C6E000E2D6E000E2E6ECE0E2F6EC1
:104B8000050E306E000E326E010E316E000EE9EC35
:104B9000E4F05A505B10D8B4D0EFA5F0D2EFA5F0F6
:104BA000DCEFA5F0C60E0501AD6FFD0EAE6FCEC5F4
:104BB000AFF5B06BEDECE9F00501CE05D8B4E3EF4D
:104BC000A5F0E5EFA5F0FBEFA5F05A505B10D8B4C7
:104BD000ECEFA5F0EEEFA5F0F4EFA5F0D60EAD6F7B
:104BE000FE0EAE6FEDECE9F0000E0501C46F010E94
:104BF000C36FCDEFA7F0AA0E2B6E010E2C6E000E28
:104C00002D6E000E2E6ECE0E2F6E050E306E000E27
:104C1000326E050E316E080EE9ECE4F05A505B106E
:104C2000D8B415EFA6F017EFA6F02DEFA6F0470EBB
:104C30000501AD6FF90EAE6FCEC5AFF5B06BCFC548
:104C4000B1F5B26BD0C5B3F5B46BD1C5B5F5B66BE4
:104C5000D2C5B7F5B86BEDECE9F00501CE05D8A4E7
:104C600034EFA6F036EFA6F046EFA6F0D1A13BEF69
:104C7000A6F03DEFA6F046EFA6F0AA0ED219D8B4E2
:104C800044EFA6F046EFA6F05CEFA6F05A505B109A
:104C9000D8B44DEFA6F04FEFA6F055EFA6F0AD0E4D
:104CA000AD6FFD0EAE6FEDECE9F0000E0501C46FC7
:104CB000020EC36FCDEFA7F0000ECB6F000ECA6FD0
:104CC000CBBF6CEFA6F0B80ECA5D0B0ECB59D8A0C7
:104CD0006CEFA6F06EEFA6F070EFA6F0A5EFA6F0D1
:104CE000000E2B6E000E2C6E000E2D6E000E2E6E22
:104CF000CE0E2F6E050E306E000E326E010E316E2E
:104D0000370EE9ECE4F0000E2B6E000E2C6E000E58
:104D10002D6E400E2E6ECE0E2F6E050E306E000ED6
:104D2000326E050E316E290EE9ECE4F00501CE512C
:104D3000D8A49DEFA6F09FEFA6F0A1EFA6F0A5EFF7
:104D4000A6F0CA4BCB2B60EFA6F05A505B10D8B43C
:104D5000ACEFA6F0AEEFA6F0B7EFA6F02B0EAD6F5E
:104D6000FD0EAE6FCEC5AFF5B06BEDECE9F0050111
:104D7000CE51D8B4BEEFA6F0C0EFA6F0D4EFA6F0A7
:104D80005A505B10D8B4C7EFA6F0C9EFA6F0F4EF05
:104D9000A5F07C0EAD6FFB0EAE6FCEC5AFF5B06B60
:104DA000EDECE9F0F4EFA5F0000E2B6E000E2C6E8A
:104DB000000E2D6E000E2E6ECE0E2F6E050E306E76
:104DC000000E326E050E316E3A0EE9ECE4F05A50E8
:104DD0005B10D8B4EEEFA6F0F0EFA6F006EFA7F068
:104DE000EC0E0501AD6FF80EAE6FCEC5AFF5B06B32
:104DF000CFC5B1F5B26BD0C5B3F5B46BD1C5B5F5C0
:104E0000B66BD2C5B7F5B86BEDECE9F0CEC5C9F518
:104E1000FE0E0501C917D8B410EFA7F012EFA7F0E6
:104E20002BEFA7F05A505B10D8B419EFA7F01BEF87
:104E3000A7F024EFA7F0580EAD6FFB0EAE6FCEC5F6
:104E4000AFF5B06BEDECE9F0000E0501C46F030E99
:104E5000C36FCDEFA7F0CFBD30EFA7F032EFA7F0D3
:104E600043EFA7F05A505B10D8B439EFA7F03BEFEF
:104E7000A7F055EFA6F0F80EAD6FF90EAE6FEDECA2
:104E8000E9F055EFA6F05A505B10D8B44AEFA7F0FE
:104E90004CEFA7F052EFA7F0C30EAD6FFA0EAE6F56
:104EA000EDECE9F00501CFBF58EFA7F05AEFA7F0FE
:104EB0006BEFA7F05A505B10D8B461EFA7F063EF27
:104EC000A7F024EFA7F04D0EAD6FFA0EAE6FEDEC2C
:104ED000E9F024EFA7F05A505B10D8B472EFA7F0B6
:104EE00074EFA7F07AEFA7F0FB0EAD6FFE0EAE6F7A
:104EF000EDECE9F0010E2B6E000E2C6E000E2D6E07
:104F0000000E2E6ECE0E2F6E050E306E000E326E1F
:104F1000010E316E3B0EE9ECE4F00501CE51D8B440
:104F200094EFA7F096EFA7F0AAEFA7F05A505B1006
:104F3000D8B49DEFA7F09FEFA7F024EFA7F0E40E01
:104F4000AD6FFB0EAE6FCEC5AFF5B06BEDECE9F01B
:104F500024EFA7F0CCC5BBF5CDC5BCF5C5C5BDF5E7
:104F6000C6C5BEF5010EBF6F000EC06F18ECD5F0C0
:104F70005A505B10D8B4BFEFA7F0C1EFA7F0C8EF4D
:104F8000A7F0340E0501AD6FFB0EAE6FEDECE9F04E
:104F9000000E0501C46F000EC36F12000CC7F4F5BC
:104FA0000DC7F5F5000E0501EF6F050EEE6F5AA463
:104FB000DCEFA7F0DEEFA7F0F4EFA7F0590EAD6F2E
:104FC000F80EAE6FDCC5AFF5DDC5B0F5DEC5B1F5E9
:104FD000DFC5B2F5E0C5B3F5E1C5B4F5E4C5B5F597
:104FE000E5C5B6F5EDECE9F05AA4F9EFA7F0FBEF53
:104FF000A7F02EEFA8F05AA600EFA8F002EFA8F055
:105000002EEFA8F0F20E0501BB6FFF0EBC6FDCC5E2
:10501000E6F5DDC5E7F5DEC5E8F5DFC5E9F5090E1E
:10502000D890E637E737E837E937E82E10EFA8F0F1
:10503000E051E625BD6FE151E721BE6F000EE8218A
:10504000BF6F000EE921C06FE2C5C1F5E3C5C2F52F
:10505000E4C5C3F5E5C5C4F5EDECD0F0000E0501DF
:10506000F36F000EF26FF669000EEB6F000EEA6F41
:105070004FEFA8F0F2C504F5F3C505F5F60E066E80
:10508000050E076E000E096E010E086E58ECDFF07B
:1050900004C5F2F505C5F3F50501EA4BEB2BE0512C
:1050A000EA5DE151EB59D8A058EFA8F05AEFA8F00B
:1050B0003AEFA8F0F2C504F5F3C505F5E2C506F52B
:1050C000E3C507F5E4C508F5E5C509F558ECDFF0DB
:1050D00004C5F2F505C5F3F5000E0501ED6F000EF0
:1050E000EC6F88EFA8F0F2C504F5F3C505F5F60EF0
:1050F000066E050E076E000E096E010E086E58EC66
